:020000040800F2
:104000000050002031EF000869C400086BC40008AC
:104010006DC400086FC4000871C4000800000000EF
:1040200000000000000000000000000075C400084F
:1040300073C400080000000077C4000885920008DF
:1040400079C400087BC400087DC400087FC4000850
:1040500081C4000883C4000885C4000887C4000820
:1040600089C400088BC400088DC40008000000004B
:104070000000000000000000000000000000000040
:1040800000000000000000009DC400089FC400085C
:10409000ADC40008BDC40008CDC40008DDC40008DC
:1040A000DFC40008E1C40008E3C40008E5C4000858
:1040B000E7C40008E9C40008EBC40008EDC4000828
:1040C000EFC40008F1C40008F3C40008F5C40008F8
:1040D000F7C40008F9C40008098B0008FDC40008F3
:1040E000FFC4000801C5000803C500080000000067
:1040F00000000000000000000000000000000000C0
:0C41000000000000000000005FF800005C
:1041100030BF704720BF704740BF7047BFF36F8FFD
:104120007047BFF34F8F7047BFF35F8F704701DF5A
:104130007047EFF31480704780F31488BFF36F8FDC
:104140007047EFF30980704780F309887047EFF3F9
:104150000880704780F30888704772B6704762B66F
:10416000704771B6704761B6704780F31188704729
:10417000EFF31280704740BA704700BA70470000F2
:104180000C4B10B59B680C4813F400440B490C4AC7
:104190000C4B07D0012404700B4808600B491860D1
:1041A000116010BD04700A4808600A4911600A4A8B
:1041B0001A6010BD00080140EC10002050110020D2
:1041C00008130020C8110020719200084B970008C6
:1041D000E58D0008858C0008358D00082DE9F74F26
:1041E000624F6348012109F0ABFA04200121032446
:1041F00009F08EFD102642F20263384601A94FF005
:104200000408ADF804308DF806408DF8076009F019
:1042100008FA40F202637B610DEB08014CF20803DF
:104220003846ADF8043001254FF04809DFF850A1B9
:104230008DF807808DF8064009F0F3F90DEB0801C1
:1042400038468DF80790ADF804508DF8064009F017
:10425000E8F90820294609F05BFD41F6FD4B504680
:104260000DEB0801ADF804B08DF806408DF807603D
:1042700009F0D7F9CAF810B03046294609F048FDD0
:104280004FF0FF0A0DEB08013A488DF807804FF414
:104290007F4BADF804A08DF8064009F0C2F90DEB94
:1042A00008018DF807903348DFF8D890ADF804B0D6
:1042B0008DF8064009F0B5F92020294609F028FDBF
:1042C0004FF6FF7348460DEB0801ADF804308DF84A
:1042D00006408DF8076009F0A4F9C9F810B0402035
:1042E000C9F814A0294609F013FD8DF80780DFF8FE
:1042F000988040F2FF33404601A9ADF804304FF4F6
:104300007C498DF8064009F08CF9404601A9ADF8CA
:1043100004908DF806408DF8076009F082F929466F
:10432000C8F81490144809F00BFA00230A211A4621
:104330004FF400507861BC683861B868640458BFB5
:104340000132400448BF01330139F1D10A2A0B4A36
:1043500003D10A2B01D1012300E0002304480121ED
:10436000137009F0EDF903B0BDE8F08F00080140CB
:1043700000023000001001400004300070110020E5
:10438000000C01400014014000180140124B82B0A3
:104390001B78F3B1114B4FF400625A614FF4806205
:1043A0001A610022019201990D4A914202D8019AA4
:1043B0000132F7E74FF400621A614FF480625A61EC
:1043C00000230193019A064B9A42E3D8019B0133E3
:1043D000F7E702B0704700BF70110020000C0140E9
:1043E0003F0D0300072816D8DFE800F00406080A8E
:1043F0000C0E101201220CE002220AE0042208E056
:10440000082206E0102204E0202202E0402200E020
:104410008022014B5A61704700140140072816D8CA
:10442000DFE800F00406080A0C0E101201220CE06E
:1044300002220AE0042208E0082206E0102204E03A
:10444000202202E0402200E08022014B1A617047E6
:104450000014014038B50546002445FA04F3DB0793
:10446000E0B202D5FFF7DAFF01E0FFF7BBFF01344E
:10447000082CF2D138BD08B507282ED8DFE800F0A7
:1044800004060B10151E232800200FE0144B98681B
:10449000C0F3400008BD124B9868C0F3800008BD0F
:1044A0000F4B9868C0F3C00008BD042004F0D2FF91
:1044B000B0F5006F94BF0020012008BD084B98683C
:1044C000C0F3401008BD064B9868C0F3801008BDCB
:1044D000034B9868C0F3C01008BD002008BD00BFA2
:1044E0000010014007282DD8DFE800F004090E1362
:1044F000181D2227144BD86800F001007047124B9A
:10450000D868C0F3400070470F4BD868C0F38000F4
:1045100070470D4BD868C0F3C00070470A4BD8688D
:10452000C0F300107047084BD868C0F340107047C4
:10453000054BD868C0F380107047034BD868C0F3B0
:10454000C0107047002070470014014038B50024A7
:104550002546E0B2FFF78FFF18B10123A3401D43AA
:10456000EDB20134082CF4D1284638BD052822D8F4
:10457000DFE800F003080D12171C104B986800F0DC
:10458000010070470D4B9868C0F3400070470B4B1B
:104590009868C0F380007047084B9868C0F3C0006B
:1045A0007047064B9868C0F300107047034B98683B
:1045B000C0F3401070470020704700BF0018014052
:1045C000052802D8C90805F0EDBD704708B109F00B
:1045D000DDB909F0E3B962B6704772B67047C0B290
:1045E00005F00EBFC0B205F0FBBE084B10F0010F86
:1045F0004FF0100214BF1A615A6110F0020F4FF011
:10460000200214BF1A615A61704700BF000C0140BC
:10461000074B9A88C2F30722172A06D19A88D2B28A
:10462000DE2A02D1188980B270470020704700BF8F
:10463000006C0040154B9A6812F4807F9A680CBF9A
:104640008020002091059A685CBF40F04000C0B215
:1046500052059A6858BF40F0200011059A6858BF6B
:1046600040F01000D2049A6858BF40F0080091044E
:104670009A689B6858BF40F00400520458BF40F04D
:1046800002001B0458BF40F00100704700100140B9
:1046900008B5082004F0DEFE5E2804D9064B1A781F
:1046A0004AB9012206E0082004F0D4FE542802D8BA
:1046B000014B00221A7008BD60050020034B1878DA
:1046C000013801288CBF00200120704760050020C0
:1046D000034B1878012806BF02221A700020704789
:1046E00060050020002070472DE9F04F4FF4804016
:1046F00089B0012109F018FB434C0120014609F063
:1047000007FB03264FF420434FF0180A204602A966
:10471000ADF808308DF80BA04FF0040B8DF80A604F
:1047200008F07FFF4FF48043204602A9ADF808301F
:104730008DF80A608DF80BB008F073FF0823ADF810
:104740001830324B002401254FF482794FF00208D3
:104750004FF40077184603A9ADF80C40ADF81040AF
:10476000ADF81A40ADF81C400193ADF80E90ADF8CD
:104770001280ADF81450ADF8167009F081FB019B62
:104780002946184609F002FC29464FF4805009F0EA
:10479000BFFA2846214608F0D3FF8DF80BA0DFF8BA
:1047A00074A0A023504602A9ADF808308DF80A6025
:1047B00008F037FF4023504602A9ADF808308DF8C5
:1047C0000A608DF80BB008F02CFFADF80C40ADF886
:1047D0001040ADF81A40ADF81C400D4C282320467F
:1047E00003A9ADF81830ADF80E90ADF81280ADF811
:1047F0001450ADF8167009F043FB2046294609F025
:10480000C5FB09B0BDE8F08F000C01400038004046
:10481000003001400008014070B504460E461546C0
:1048200008287BD8DFE800F005101316191C1F0AB2
:104830000D003C4B4FF480525A6119E04FF4007266
:1048400013E04FF4807210E04FF480620DE04FF4FB
:1048500000620AE04FF4805207E04FF4005204E097
:104860004FF4804201E04FF400422F4B5A6110E0B8
:104870002E48022109F00EFC0028F9D02B483146C1
:1048800009F0B4FB2948012109F004FC0028F9D003
:1048900019E02748022109F0FDFB0028F9D024483F
:1048A000314609F0A3FB2248012109F0F3FB00285F
:1048B000F9D045B3082C31D8DFE804F006111417FD
:1048C0001A1D200B0E0015B3164B4FF480521A61BF
:1048D0001DE04FF4007213E04FF4807210E04FF4CB
:1048E00080620DE04FF400620AE04FF4805207E06E
:1048F0004FF4005204E04FF4804201E04FF40042D4
:10490000094B1A6105E014B1082C09D801E00748E9
:1049100000E0074809F06CFBC0B270BD002070BD1C
:10492000284670BD000C01400014014000380040D2
:104930000030014037B5B54DA8786B7805282C4676
:1049400001D904225AE3A22B00F0AE8200F2848047
:10495000842B00F01F8128D8062B00F0808110D80E
:10496000022B00F0178106D8002B00F0F080012BFD
:1049700000F0FB8041E3042B00F04C8140F23481D5
:1049800062E1802B00F0E38009D80C2B00F08381DA
:104990000D2B00F09A81072B40F02F836DE1822BC5
:1049A00000F0AD8140F2E18034E1932B00F08D8185
:1049B00026D8872B00F0B48106D8852B00F014810F
:1049C000862B00F0418118E38C2B00F0B4818D2BF5
:1049D00000F0BC818A2B40F0108302288ABFC11EE0
:1049E0004101490194BF0023012341F014011846FD
:1049F000C9B201AA06F0ACFFEB788DF80630CBE126
:104A0000992B00F0E08108D8952B00F0AA81C0F026
:104A10004281962B00F0D081EFE2A02B00F038828B
:104A200000F23C829A2B40F0E88202288ABFC11E25
:104A30004101490194BF0023012341F018011846A8
:104A400001AAC9B206F084FF9DF80530EA7803F0A8
:104A50000F0343EA0213CDE1B12B00F0A7822ED859
:104A6000A92B00F0788210D8A52B00F0498206D837
:104A7000A32B00F01F82A42B00F02282BDE2A72B03
:104A800000F05D8240F24C825FE2AD2B00F07C8250
:104A90000AD8AB2B00F0658200F26982D5F80310CA
:104AA000C9B205F023FBABE2AF2B00F0738200F23A
:104AB0007782D5F8031049B205F06AFBA0E2C22B59
:104AC00000F0BA811FD8B72B00F089820DD8B52B22
:104AD00000F0728200F27782B22B40F08E82D5F81D
:104AE0000310C9B205F0A2FB8AE2C02B00F0C5801A
:104AF00000F29C81B82B40F08082D5F80310C9B237
:104B000005F040FA7CE2CC2B00F0AD810FD8C72B2A
:104B100000F0A580C82B00F09581C32B40F06D827A
:104B20003B4B03EB4010D5F80330436068E2D52BD4
:104B300000F0A081D62B00F0A481D42B40F05D8240
:104B4000334B03EB4010D5F80330436158E205F0D6
:104B5000CBFC40B9A178022988BF033994BF00205B
:104B60000120490110E0062248E205F0BDFC0028C2
:104B7000F9D1A178022988BF03394FEA411194BFC6
:104B80000020012041F00201C9B2D4F8032006F050
:104B900042FE35E205F0A8FC0028E4D1A178D4F863
:104BA0000320022988BF03394FEA411141F008016F
:104BB00094BF00200120C9B206F01BFEA178D4F8F2
:104BC0000320022988BF03394FEA411141F0060151
:104BD00094BF00200120C9B2002AB8BF524206F09B
:104BE00008FEA37801212CE005F07EFC0028BAD154
:104BF000A178022988BF03394FEA411141F00A0127
:104C000094BF00200120C9B285E000BF980A0020AF
:104C1000CC11002002288ABFC11E4101490194BF66
:104C20000023012341F00601C9B21846D4F803203D
:104C300006F0DFFDD4F80310A378A94A42F8231048
:104C40000021A84AD154DBE1D4F8031006F007FF95
:104C5000A378D4F80310A44A42F82310E1E0A34B50
:104C600001221A54A24BE17803EB40135972A14B75
:104C70001B5C022B40F0C481BCE19C4B01221A5406
:104C80009B4BE17803EB401399729A4B1B5C002B12
:104C900040F0B681AEE102288ABFC11E4101490140
:104CA00094BF0023012341F01401184601AAC9B2A0
:104CB00006F04EFED4F803209DF8053012B143F003
:104CC000020367E023F0020364E002288ABFC11EEA
:104CD0004101490194BF0023012341F0140118460A
:104CE00001AAC9B206F034FED4F803209DF80530BD
:104CF00012B143F001034DE023F001034AE0022822
:104D00008ABFC11E4101490194BF0023012341F024
:104D10000401C9B21846D4F8032006F06AFD6FE119
:104D200002288ABFC11E4101490194BF002301230B
:104D300041F00E01EDE76E4BE97803EB4013D972B9
:104D4000C1F10801C9B205F0C9F859E102288ABFCA
:104D5000C11E4101490194BF0023012341F01A0102
:104D6000D7E702288ABFC11E4101490194BF002331
:104D7000012341F01401184601AAC9B206F0E8FD6A
:104D8000D5F803209DF8053012B143F0040301E08B
:104D900023F004038DF80530A17801AA022988BF09
:104DA00003394FEA411141F0140194BF0020012062
:104DB000C9B206F0F9FC23E1D5F803204E4B02B14D
:104DC00001221A541CE102288ABFC11E4101490177
:104DD00094BF0023012341F01801184601AAC9B26B
:104DE00006F0B6FDEA789DF8053002F00F0223F0D8
:104DF0000F031343A1788DF80530022994BF0020DA
:104E0000012000D90339490141F01801C9B201AAB2
:104E100006F0CAFC344BA07853F8201006F01FFEB1
:104E2000A378304A134400229A71E9E0304B03EB37
:104E30004010EB780372E3E0D5F803202C4B4001DF
:104E40001A50DDE0294B01221A54294BD5F80320D2
:104E500003EB4013DA77274B1B5C032B40F0D08029
:104E6000264BD978C6E0224B03EB4010D5F803302F
:104E7000C381C5E01E4B03EB4010D5F803308377A8
:104E8000BEE01B4B03EB4010D5F803308383B7E043
:104E9000D5F80310C9B205F031F8B1E0D5F8031028
:104EA000C9B205F039F8ABE0D5F80310C9B205F086
:104EB00055F8A5E0D5F80310C9B205F059F89FE000
:104EC00005F0B8F8D5F8031020B9A878C9B205F0F4
:104ED00063F895E0A878C9B205F086F890E000BFC5
:104EE000D410002064050020BC0C0020F812002023
:104EF000CC1100200013002018130020980A002075
:104F000005F098F8AB78D5F8031020B91846C9B267
:104F100005F04CF874E01846C9B205F079F86FE076
:104F200005F088F8D5F8031020B9A878C9B205F0C3
:104F300047F865E0A878C9B205F060F860E0D5F8F8
:104F40000310C9B205F046F85AE0D5F80310C9B20B
:104F500005F0B8F854E0D5F80310C9B205F0BCF874
:104F60004EE0D5F80310C9B205F0CAF848E0D5F80C
:104F70000310C9B205F0CEF8AA78224B03EBC203A6
:104F8000D5F803205A713BE0D5F80310C9B205F0FB
:104F9000F5F835E0D5F80310C9B205F029F92FE08E
:104FA000D5F80310C9B205F02DF929E0D5F80310A2
:104FB000C9B205F031F923E0134B03EB4010D5F8EB
:104FC000033083611CE0D5F803200E4B43F83020FA
:104FD000B2B903EBC003597905F09CF810E0094B16
:104FE000D5F8032003EBC0031A71084B1B5C012B9F
:104FF00006D1E978FFF7E4FA02E00322044B1A70C5
:1050000003B030BD10110020CC110020001300208F
:10501000B00C002037B57F4D7F4CA8786B78052801
:1050200002D904232370DAE2D62B00F2C682DFE82D
:1050300013F0D700E200F50000010B010D010F0194
:1050400014011901520173015A012A013E01C402DF
:10505000C402C402C402C402C402C402C402C40220
:10506000C402C402C402C402C402C402C402C40210
:10507000C402C402C402C402C402C402C402C40200
:10508000C402C402C402C402C402C402C402C402F0
:10509000C402C402C402C402C402C402C402C402E0
:1050A000C402C402C402C402C402C402C402C402D0
:1050B000C402C402C402C402C402C402C402C402C0
:1050C000C402C402C402C402C402C402C402C402B0
:1050D000C402C402C402C402C402C402C402C402A0
:1050E000C402C402C402C402C402C402C402C40290
:1050F000C402C402C402C402C402C402C402C40280
:10510000C402C402C402C402C402C402C402C4026F
:10511000C402C402C402C402C402C402C402C4025F
:10512000C402C402C402C402C402C402C402C4024F
:10513000C402D700E20084010B01F50000010D015B
:105140008F01C402C4029A01C402AC01B101C402BD
:10515000C402C402C402C4023E012A01C001D40137
:10516000C402C402D601EA015A0173011901C40242
:10517000C402420245025F026202650271027C02C1
:1051800087028A028D029002930296029B029E027F
:10519000A102A402A702AA02AD02B002B302B802A1
:1051A000BC02C102C402C402C402C402C402C402DA
:1051B000C4021401FD01020206020B020D02C40228
:1051C0000F010F02C402C402C4021402C402190275
:1051D0001D023102C402C402C402330238023D027D
:1051E000022894BF0023012302D84001C1B20DE080
:1051F000C11E490109E002288ABFC11E41014901BF
:1052000094BF0023012341F00201C9B2184606F001
:1052100011FE79E1980A0020B00C002002288ABF14
:10522000C11E4101490194BF0023012341F008013F
:10523000BAE002288ABFC11E4101490194BF002380
:10524000012341F00A01AFE09E4B0CE19E4B0AE1C5
:105250009E4B03EB4010437A5CE09C4B03EB401009
:10526000837A57E0022894BF0020012006F063FBF8
:10527000AB780122022B92BF9340033B5B0002FA02
:1052800003F3034243E002288ABFC11E41014901E2
:1052900094BF0023012341F014011846C9B201AAAA
:1052A00006F056FB9DF80530C3F3400332E00228B8
:1052B0008ABFC11E4101490194BF0023012341F06F
:1052C00014011846C9B201AA06F042FB9DF8053048
:1052D00003F001031EE0022894BF01300230C0B287
:1052E000FFF7C9F810E1022894BF002001207C21BB
:1052F00001AA06F02DFBAB789DF80610022B4FF0AB
:10530000020200D9033B5B0002FA03F30B420CBF1D
:1053100000230123636052E1022894BF0020012092
:105320007C2101AA06F014FBAB789DF80610022B35
:105330004FF00102E6D89340E6E702288ABFC11E7B
:105340004101490194BF0023012341F004012BE0F6
:1053500002288ABFC11E4101490194BF00230123D5
:1053600041F00E0120E002288ABFC11E410149011F
:1053700094BF0023012341F014011846C9B201AAC9
:1053800006F0E6FA9DF80630C4E704F0CFFDC0F160
:105390000800B9E002288ABFC11E4101490194BF3B
:1053A0000023012341F01A01C9B2184606F0E7FABA
:1053B000AAE002288ABFC11E4101490194BF00230F
:1053C000012341F014011846C9B201AA06F0C0FA3F
:1053D0009DF80530C3F380039CE73D4BDAE00228DB
:1053E0008ABFC11E4101490194BF0023012341F03E
:1053F00018011846C9B201AA06F0AAFA9DF80530AC
:1054000003F00F0386E702288ABFC11E410149014C
:1054100094BF0023012341F018011846C9B201AA24
:1054200006F096FA9DF805301B0973E7274B03EB4E
:105430004010037A6EE7254B40011B586AE7234B67
:1054400003EB4010436865E7224B0CE0224B0AE077
:105450001E4B03EB4010C37F5CE71C4B03EB40107B
:10546000C38957E71D4B53F8203053E7AB781C4AEC
:105470000021D05C616010B11A4801254560D1540B
:10548000194AD15C19B1616841F0020161600021E3
:10549000D15494E0154B7DE00C4B03EB4010436975
:1054A00038E70A4B03EB4010837F33E7074B03EBEE
:1054B0004010838B2EE704F041FD25E004F046FD0B
:1054C00022E000BFD4100020BC0C0020CC11002032
:1054D00018130020F0100020901200205811002016
:1054E000BC110020B00C002046110020C211002089
:1054F00004F098FD08E004F09DFD05E004F09AFD3D
:1055000020B9A87804F0A6FD606058E0A87804F0FF
:10551000C1FDF9E704F08EFD18B9A87804F0A2FDEA
:10552000F2E7A87804F0C6FDEEE704F083FD18B9B1
:10553000A87804F09FFDE7E7A87804F0B3FDE3E75F
:1055400004F0A0FDE0E704F0EFFDDDE704F0F6FD78
:10555000DAE704F0FBFDD7E704F000FED4E7214BC7
:1055600003EBC0004379D5E604F026FECCE704F057
:105570002DFEC9E704F092FEC6E704F097FEC3E7EC
:1055800004F09CFEC0E704F0A1FEBDE704F0AEFE0F
:10559000BAE7154B1B5CBDE6144B03EB4010836967
:1055A000B8E6104B53F83030B4E60E4B03EBC000B6
:1055B0000379AFE604F046FDA6E7032323700C4B06
:1055C0001B7863B10B4B62681A600B4B1AB91A68EF
:1055D00042F0080202E01A6822F008021A6003B0E2
:1055E00030BD00BF101100200A110020CC11002096
:1055F000AB0C00209C0C0020A00A002038B5AF4A5C
:1056000095781446022D00F05181032D00F0688139
:10561000002D40F0088253784F2B00F0A58037D83A
:10562000462B78D014D8422B63D009D8402B5CD0BD
:10563000412B40F0F681D178A14B002019705CE03D
:10564000442B9F4A5DD062D8E1780420117154E068
:10565000492B73D00AD8472B68D0482B40F0E18102
:10566000D3789749262001F8263FD6E04C2B71D0FD
:105670004D2B74D04B2B40F0D481914CD17803202A
:10568000E17002F0F2FFE078BDE8384003F0D0BAF4
:10569000572B00F0D08012D8522B00F0968005D8FE
:1056A000502B7ED0512B00F08180BAE1542B00F0BA
:1056B000A980C0F09180552B00F0B180B1E1832B1F
:1056C00000F0E78006D8592B00F0BB805A2B00F081
:1056D000C080A6E1852B00F0E580C0F0DE80FF2BC6
:1056E00040F09F81D278774B9FE140F2FF70D178F4
:1056F00003E0D178724B01205970BDE8384002F0C8
:10570000B4BFD4F803301C20D3616F4909E0E178BD
:1057100005205171F1E7D2F8033069490C2041F8B6
:105720000C3F0422BDE8384002F0FEBF644DD2F8C1
:105730000330294641F8083F082054E0D278604BF6
:105740000AB9DA7503E061490122DA754A60172067
:10575000D97DD2E7D1785A4B02209970CDE7D17824
:10576000574B15205975C8E7D2F80310544CC9B2ED
:105770001920617602F079FF607E10F001000EBF03
:1057800001462846012106F091FB637E012003F0CB
:10579000020303F0FF0103B10146BDE8384006F003
:1057A00085BBD178464B16209975A6E7444B1A7DE8
:1057B0001D4612F0010F04D0E378DB0701D402F09C
:1057C000B8FEE1781420297597E7D2F803303C49F8
:1057D000202041F8203FA4E7394DD2F80330294674
:1057E00041F8103F1020042202F09EFF384B1B7836
:1057F000002B40F01B816879A9682A69BDE8384010
:1058000003F050BBD2F80330012B00F20C812B4B7C
:105810002B49DB781A2001F81A3F012282E7D2F8DF
:105820000330012B00F2FF80244B2549DB781B203D
:1058300001F81B3FF1E7D3782149272001F8273FE2
:10584000EBE7D2F803301E49242021F8243F02223E
:1058500068E71B4DD378294601F8283F282001220C
:1058600002F062FF95F8280010F001000EBF01461B
:105870000020012106F02CFB95F82830012003F0D0
:10588000020303F0FF0103B10146BDE8384006F012
:105890001FBBD2F803200F4B5EE0D2F803200E4B63
:1058A0001A6038BDD2F803200A4B5AE051780B4BEE
:1058B000D2F8032043F8212038BD00BF980A002009
:1058C00004000020AA0C002020000020B00C0020C2
:1058D000EC10002064050020AC0C0020D40C00204B
:1058E00053782E2B00F29D80DFE803F018212A9BCD
:1058F0009B9B9B9B9B33383D42474C9B9B9B9B9B1D
:105900009B9B9B9B9B9B9B5153555C5E606264661B
:10591000686A6C73787D82878C919600444BD4F8CA
:1059200003201A6003F0FAFC424B586138BD404B2B
:10593000D4F803205A6003F0F1FC3E4B986138BD67
:105940003B4BD4F803209A6003F0E8FC394BD86154
:1059500038BDD4F80320364BDA6038BDD4F80320C4
:10596000334B1A6138BDD4F80320314B5A6138BD2E
:10597000D4F803202E4B9A6138BDD4F803202C4B69
:10598000DA6138BDD4F80320294B1A6238BD0020F3
:1059900002E0002017E00120D4F80310BDE83840F1
:1059A00006F07FB901200EE00220F5E702200AE0B0
:1059B0000320F1E7032006E00420EDE7042002E0E5
:1059C0000520E9E70520D4F80310BDE8384006F0CB
:1059D000A1B9D4F80320164B5A6238BDD4F803207D
:1059E000134B9A6238BDD4F80320114BDA6238BDEC
:1059F000D4F803200E4B1A6338BDD4F803200C4BA7
:105A00005A6338BDD4F80320094B9A6338BDD4F8E3
:105A10000320074BDA6338BDD4F80320044B1A6423
:105A200038BD032200E00422034B1A7038BD00BFCA
:105A3000A812002064050020B00C00202DE9F843D6
:105A4000054614460F4600295ED000285CD08142EE
:105A50005AD0022A8ABFD11E5101490194BF0026A3
:105A6000012641F00601C9B2304606F0E3F9022CE6
:105A70008ABFE11E6101490141F00C01C9B28146B2
:105A8000304606F0D7F9804628460BF063F8054605
:105A900038460BF05FF8014628460BF067F90746D9
:105AA00048460BF057F839460BF060F90BF070FAE6
:105AB000054640460BF04EF839460BF057F90BF00F
:105AC00067FA002D08BF01251049002814BF804641
:105AD0004FF0010838460BF033FA0D4F30B1204635
:105AE000414605F0BCFF3B1901229A71022C8ABF86
:105AF000E11E6101490141F00601C9B230462A4662
:105B000005F089FE01233B55BDE8F8830000A04164
:105B10006405002038B5114D04462B5C93B1022872
:105B200088BFE11E0E4B94BF6101490141F006019F
:105B300053F8242094BF00200120C9B205F059FE7B
:105B400000232B552544AB793BB1064BE0B253F80B
:105B5000241005F084FF0023AB7138BD64050020DC
:105B6000D4100020BC0C00202DE9FF4704F0BCFC41
:105B700008B1062279E2994CA078052803D9637808
:105B8000022B40F029816378032B00F26D82DFE85D
:105B900013F004006F00F6001F01FFF7BBFFA178B0
:105BA0008F4A002353548F4A022953544FF0010265
:105BB00002FA01F28C4B88BF033918784FEA411181
:105BC00020EA02021A7094BF00200120C9B2D4F862
:105BD00003201E4605F01FFEA1780022022988BF7F
:105BE000033994BF0020012088BFC9B205F0DFFE51
:105BF0007E4FA37807EB43139B7F002B00F0378287
:105C00000025A3789D422FD04FEA451907EB0902E2
:105C100007EB4313927F9B7F9A4225D12846FFF7DB
:105C200079FF0123AB40022D88BFE91E327888BF7F
:105C3000490194BF4FF000084FF0010888BFC9B276
:105C400022EA030398BF5FFA89F14046D4F80320A3
:105C5000337005F0E0FD022D8ABFE91EE9B2C9B23A
:105C60004046002205F0A3FE0135062DC9D1FEE114
:105C7000FFF750FFA1785A4A00235354594A02298A
:105C8000535488BF03394FEA411141F0020194BFD8
:105C900000200120C9B206F0CDF8A17801228A4087
:105CA000514BD4F8035002290544187888BF0339B2
:105CB00020EA02024FEA41111A7094BF002001202D
:105CC000C9B22A46994605F0A6FDA178002202290C
:105CD00088BF033994BF0020012088BFC9B205F0F6
:105CE00066FE434BA2785D60404B03EB4212927F0D
:105CF0009A46002A00F0BB81FD260025A078854247
:105D000037D04FEA45180AEB08020AEB4013927F9E
:105D10009B7F9A422DD1FFF7FDFE022D88BF7101B6
:105D200094BF0027012794BF48F0020141F002010F
:105D3000C9B2384606F07EF80123AB4099F800104E
:105D4000022DD4F8032021EA030388BF7101024425
:105D500094BF5FFA88F1C9B2384689F8003005F07F
:105D60005AFD022D94BFE9B231463846002205F0B3
:105D70001EFE01350136062DF6B2BFD177E110F0D7
:105D8000C00539D1052827D8D4F80330142B23DCDB
:105D9000062202FB0303174A52F82360FFF7BAFEFC
:105DA0000E4B012299780E4B8A405D540D4B02290F
:105DB0005D540D4B88BF033918784FEA411120EA32
:105DC00002021A7094BF00200120C9B232463CE1A1
:105DD00010F0C00F00F0FF80042246E1980A002076
:105DE00046110020BC11002009110020CC11002018
:105DF000B00C0020A40A0020402D40F0AB80D4F865
:105E00000380B8F1140FE7DC002501950295039596
:105E10002B4640FA03F2D10706D504AA2A440135DD
:105E2000032D02F8103C02D00133062BF1D10026DD
:105E3000AE4221DA1DF806703846FFF76BFE022FDE
:105E40008ABFF91E7901490141F0020194BF002087
:105E50000120C9B205F0EEFF062303FB0877854B4E
:105E600001AA53F82730C01A80EAE073A3EBE0736D
:105E700042F826300136DBE7012D35DD022D019E8B
:105E8000029D08D1AE4201DD304628E02846314669
:105E90009DF8002026E0AE42039F0EDDBE4207DDE6
:105EA000304629469DF80120FFF7C8FD30460DE039
:105EB000384631469DF800200EE0BD429DF8002096
:105EC00008DD28463146FFF7B9FD284639469DF8DA
:105ED000022007E038463146FFF7B0FD38469DF80E
:105EE00001202946FFF7AAFD0025A3782B41DA07F8
:105EF0002CD5614B0622D3F80330604902FB0352D4
:105F00005C4B022D53F822204FF000036B545C4988
:105F100094BF002601266B544FF0010101FA05F1F0
:105F2000584B187820EA010119708ABFE91E6901EF
:105F30004901C9B2304605F06EFC022D8ABFE91E48
:105F4000E9B2C9B23046002205F031FD0135062D17
:105F5000CBD18CE0802D40F08A80D4F80330142B14
:105F60003FF73AAF0025A3782B41DB072FD5424BF3
:105F70000622D3F80330284602FB03523D4B53F868
:105F80002270FFF7C7FD3D4A0023AB543C4A022D67
:105F9000AB544FF0010202FA05F23A4B94BF0026CF
:105FA00001261978304621EA02028ABFE91E6901FA
:105FB0004901C9B21A703A4605F02DFC022D8ABF7C
:105FC000E91EE9B2C9B23046002205F0F0FC013505
:105FD000062DC8D14BE0052849D8D4F80330142B3E
:105FE00045DC02288ABFC11E4101490194BF00233C
:105FF000012341F00201C9B2184605F01BFFA37846
:10600000D4F80320062101FB02311A4A52F821502C
:1060100005441846FFF77EFDA178184A0023535423
:10602000174A022953544FF0010202FA01F2154BAC
:1060300088BF033918784FEA411120EA02021A702A
:1060400094BF00200120C9B22A4605F0E4FBA178E4
:106050000022022988BF033994BF0020012088BF95
:10606000C9B205F0A4FC02E00322074B1A7004B089
:10607000BDE8F087A40A0020980A002046110020FD
:10608000BC11002009110020B00C0020F7B5BE4E55
:10609000BE4F327864233B70D6F80330222A7A70E0
:1060A0007B6035463C4601F0408260D80F2A00F004
:1060B00051862AD8072A00F0B28114D8032A00F0AA
:1060C0006F8107D8012A00F0C480022A00F00D81F8
:1060D00001F090BC052A00F09A8100F29C81FFF744
:1060E00043FD01F089BC0B2A00F0798506D8092A06
:1060F00000F01D8440F2B68200F01DBC0D2A00F0B5
:10610000A18540F2898500F0FEBD192A00F065875F
:1061100014D8152A00F0B58607D8132A00F0568641
:10612000142A00F08C8601F065BC172A984A00F00A
:106130003A8700F24587536201F05EBC1E2A00F0E8
:106140005F850DD81B2A00F06A87C0F057871C2A8C
:1061500041F050848E4B002283F8202001F04CBC8B
:10616000202A01F0118141F2C18001F079B9812A20
:1061700001F0678236D8412A01F0518217D8252ACA
:1061800001F00E8207D8232A01F0D681242A01F0DB
:10619000DA8101F02FBC272A01F03082C1F0098298
:1061A000402A41F0278403F04CFC01F025BC452A2D
:1061B00001F03E8208D8432A01F0348201F2358290
:1061C00003F041FC01F018BC472A01F03782C1F00E
:1061D0003282802A41F00E846D4B002283F8202009
:1061E00001F00ABC882A01F0AE821CD8842A01F092
:1061F0005D820DD8822A01F03A82832A41F0FA8327
:10620000634B002183F84C1083F8341101F034BA49
:10621000862A01F05D8201F2DD825D4B002283F867
:10622000202001F0E9BB8C2A01F0318306D88A2AAC
:1062300001F0118341F2F78201F024BBF22A01F050
:106240008D83FF2A01F0CD838D2A41F0D38301F0A5
:1062500042BBB378052B4BD804F046F918B106239E
:10626000237001F0C9BBFD260446AB789C420AD0DE
:10627000484A02EB43139B7F002B2FD002EB4412C2
:10628000927F9A422AD1424B0122E254424A002391
:10629000022CA354414A94BF0027012794BFE1B2C6
:1062A0003146A3543846022205F081FB022C94BFEC
:1062B0006101710141F00601C9B2384640F2FF7236
:1062C00005F097FA022C94BF6101710141F00801B9
:1062D000C9B23846D5F8032005F08BFA01340136EF
:1062E000062CF6B2C1D101F087BBB378052B03D9D8
:1062F0000423237001F080BB04F0F6F80028AED12F
:10630000FD260446AB789C420AD0224A02EB431396
:106310009B7F002B30D002EB4412927F9A422BD10C
:106320001B4B0122E2541C4A0023022CA3541B4A9B
:1063300094BF0027012794BFE1B23146A3543846E9
:10634000022205F034FB022C94BF6101710141F07F
:106350000601C9B2384640F2FF7205F04AFA022C33
:1063600094BF61017101D5F8032041F00801C9B261
:106370003846524205F03DFA01340136062CF6B299
:10638000C0D101F039BB00BF980A0020B00C00203A
:1063900064050020CC110020BC1100204611002013
:1063A000B378052BA4D80024AB789C4209D0CD4A01
:1063B00002EB43139B7F2BB302EB4412927F9A4272
:1063C00020D1C94A0023A354C84AE6B2A354304698
:1063D00005F022F9022C88BFF11E94BF0027012787
:1063E0008CBFC9B231463846022205F0E0FA022CD1
:1063F0008ABFF11E7101490141F00801C9B2384656
:1064000005F082FA0134062CCED101F0F5BAFEF780
:1064100091FA01F0F1BAFEF7FDFD01F0EDBAB378A3
:106420007278052B3FF664AF9A2A2ED8992A80F00D
:10643000B580822A00F098800BD8062A78D003D83D
:10644000042A6FD0052A0BE0072A7FD00C3A012AD4
:1064500013E08C2A00F08E800AD8832A62D0862A24
:1064600040F0FC8018460C2105F0C9FB01F0C4BACD
:106470008D2A00F08D80933A022A00F2EF801846B0
:10648000142105F0BCFB01F0B7BAC72A50D01AD8C6
:10649000C12A00F0978005D8B52A00F08580C02A6F
:1064A00054D0DBE0C22A00F09780C32A40F0D680A7
:1064B0008C49580101EB431144300431042202F0AD
:1064C00033F901F099BAD22A00F09E8013D8C82A75
:1064D00000F08C80CC2A40F0C180824A580111180B
:1064E0000E311044081A023300EB4310022202F06E
:1064F0001BF901F081BAD52A00F09480D62A00F069
:106500009F80D42A40F0AA80764A5801111814318D
:106510001044081A023300EB4310042202F004F97D
:1065200001F06ABA1846062105F069FB01F064BA69
:106530006C4A5901501809300A44801A023300EBA2
:106540004310517A02F091F801F056BA654A5901A8
:1065500050180A300A44801A023300EB4310917A33
:1065600002F083F801F048BA1846042105F047FB11
:1065700001F042BA5B4A580111180B311044081A55
:10658000023300EB4310012202F0CEF801F034BADE
:1065900018461A2105F033FB01F02EBA18461821CF
:1065A00005F02DFB01F028BA580100F118024D4901
:1065B000101A0233114400EB4310042202F0B4F825
:1065C00001F01ABA474A580102EB43124830117AD7
:1065D00002F04BF801F010BA4249981C400101EB5F
:1065E0004311042202F0A0F801F006BA3D4A580116
:1065F00011181F311044081A023300EB4310012216
:1066000002F092F801F0F8B9580100F11002354992
:10661000101A0233114400EB4310042202F084F8F4
:1066200001F0EAB92F4A580111181E311044081A16
:10663000023300EB4310012202F076F801F0DCB9DE
:10664000284A580111181C311044081A023300EB73
:106650004310022202F068F801F0CEB90323237040
:1066600001F0CAB9AB78224E052B6A783FF640AEEE
:10667000952A4FD8932A80F0DC800D2A0DD80C2A59
:1066800080F0D780052A00F0A68001D8042A0CE00B
:10669000062A00F0C080072A5FE0862A00F09B806F
:1066A0002CD8822A00F0CB80832A40F03C8106213E
:1066B000184605F079FAAC78022C8ABFE11E610118
:1066C000490141F00601C9B294BF0020012005F044
:1066D00056F9084B084A43F82400AB780021D154FE
:1066E00001F08AB9CC110020BC1100204611002015
:1066F000980A0020D4100020640500208C2A00F0A5
:10670000A4808D2A40F00F8118461A2105F04CFA1A
:1067100001F072B9C32A00F0D1802ED8B52A00F05A
:10672000AB8014D8993A012A00F2FD80184618214E
:1067300005F03AFAC54BB07853F8201005F08FF900
:10674000C34AB378134400229A7101F055B9C12AA3
:1067500000F0A08000F2A880C02A40F0E480BD4A8A
:106760005C0111190A311444081B023300EB431079
:1067700002F054F8A07201F03FB9CC2A00F0A980D1
:1067800012D8C72A47D0C82A40F0CD80B14A580154
:1067900011181F311044081A023300EB4310012274
:1067A00002F055F801F028B9D52A00F0A080D62AC9
:1067B00000F0AB80D42A40F0B680A64A58011118E8
:1067C00014311044081A023300EB4310042202F083
:1067D0003EF801F011B90C21184605F0E5F9AC7846
:1067E000022C8ABFE11E6101490141F00C0194BFF6
:1067F00000200120C9B205F0C2F8944B944A43F836
:106800002400A87800210244917153F8201005F06B
:1068100026F901F0F1B88F4A5C01111909311444CD
:10682000081B023300EB431001F0F8FF607201F027
:10683000E3B81846142105F0B7F901F0DDB81846A1
:10684000042105F0B1F901F0D7B8824C5A01A11822
:106850000B312244881A023300EB4310012201F06D
:10686000F6FFB07804EB4014E17AC1F10801C9B237
:1068700003F034FB01F0C0B8580100F1180275496B
:10688000101A0233114400EB4310042201F0DFFF21
:1068900001F0B2B858016F4C483004EB431401F0DA
:1068A000BDFF207201F0A8B86A49981C400101EBB5
:1068B0004311042201F0CBFF01F09EB86549580155
:1068C00001EB431144300431042201F0C0FF01F018
:1068D00093B8604A580111180E311044081A023357
:1068E00000EB4310022201F0B2FF01F085B8594AD3
:1068F000580111181E311044081A023300EB4310DE
:10690000012201F0A4FF01F077B8524A5801111892
:106910001C311044081A023300EB4310022201F02C
:1069200096FF01F069B80323237001F065B8FEF704
:1069300065FE01F061B8B278474B022A00F0C280D0
:10694000032A00F0C480002A40F031815B78512B8B
:1069500000F096802CD8472B71D014D8432B69D0E7
:106960000AD8412B61D062D8402B40F01E8140F202
:10697000FF7001F053FFE5E0452B384A5DD000F28F
:106980009680D3690FE14C2B71D008D8492B6BD07E
:1069900057D34B2B40F00981304BDB7803E14F2B71
:1069A00068D06AD84D2B40F000812C4B5B7DFAE01B
:1069B000802B76D013D8552B69D005D8532B274A76
:1069C00061D062D8136AEEE0592B63D05A2B64D0A1
:1069D000572B40F0EA80214B93F82730E3E0842BDB
:1069E00067D009D8822B1A4A5FD060D892F820303D
:1069F0001E1F73427341D6E0F02B5CD00DD8852B5F
:106A000040F0D380124A164913694B4303F54053B3
:106A10003933136123F00043C5E0FE2B4BD0FF2B2D
:106A200040F0C3800F4B1B7848E00C4B44E00B4B0D
:106A30005B78B8E0094B1B79B5E05379B3E0074BBD
:106A400069E0064B93F82630ADE000BFBC0C002097
:106A500064050020CC110020980A002004000020CA
:106A60006D4EC641AA0C00207C4BDB7D26E07B4BA3
:106A70009B7898E0794B5B7E95E0784B9B7D92E02C
:106A8000764B1B7D8FE013698DE0937E8BE0734B1B
:106A9000DB7E88E0714B9B8C85E0704B93F828304F
:106AA00081E06F4B93F820307DE0536A7BE0D36840
:106AB00079E06C4B29E06C4B1B7874E0003318BF15
:106AC000012370E05A78694B53F822306BE05B7811
:106AD0002E2B6AD8DFE803F0181B1E696969696903
:106AE000692124272A2D3069696969696969696999
:106AF00069696933383A3C3E40424446484A4C5002
:106B00005356595C5F626500594B1B684BE0584B0C
:106B10005B6848E0564B9B6845E0554BDB6842E0BC
:106B2000534B1B693FE0524B5B693CE0504B9B6908
:106B300039E04F4BDB6936E04D4B1B6A33E00020F8
:106B400005F021F9606034E0002012E00120F7E751
:106B500001200EE00220F3E702200AE00320EFE725
:106B6000032006E00420EBE7042002E00520E7E72D
:106B7000052005F023F9E5E73D4B5B6A13E03C4B4C
:106B80009B6A10E03A4BDB6A0DE0394B1B6B0AE065
:106B9000374B5B6B07E0364B9B6B04E0344BDB6B96
:106BA00001E0334B1B6C636003E0032300E004232C
:106BB0002370304B1B78002B00F01E872E4B626831
:106BC0001A602E4B2AB91A6842F008021A6000F0C7
:106BD00013BF1A6822F008021A6000F00DBFB378E4
:106BE000022B15D17378372B0ED8204903F5A770E7
:106BF000800001EB8301042201F096FD00F0FCBE51
:106C00007278142A40F225830323237000F0F4BE27
:106C100004233B7000F0F0BEB378022B0ED1184B6A
:106C20005B78372BF0D8114903F5A770800001EB92
:106C30008301042201F00BFE00F0DEBE04233B7052
:106C400000F0DABEB07805283FF652AB6B780C4EF8
:106C5000012B39D016D3022B3AD050E0040000208B
:106C600064050020AC0C0020F0120020D40C0020A1
:106C7000A8120020AB0C00209C0C0020A00A0020D1
:106C8000980A002003F030FC054600287FF4E7AAAC
:106C9000B07804F0B9FCB3782846834209D09B4908
:106CA00001EB4012927F52B101EB4311897F914277
:106CB00005D1974A01218154964A0021815401301F
:106CC0000628EAD100F098BE04F0A6FC00F094BEBD
:106CD00004F0AAFC904B78601B78002B00F08C86A7
:106CE0008E4B18608E4B1A6820B942F008021A6069
:106CF00000F082BE22F008021A6000F07DBE03237D
:106D00003B7000F079BEB27812B1022A05D01DE0C6
:106D10001846FDF76AFC00F06FBE824A50780728DB
:106D200008D81BB9FDF75EFB00F066BEFDF776FBE9
:106D300000F062BEFF287FF467AF5D1C0ABF774B8F
:106D4000D8B21878FDF786FB00F056BE04233B70DE
:106D500000F052BEB378012B1CD005D3022B1DD1FD
:106D60007078FDF7BFFB0EE07078082802D8FDF7B9
:106D700082FB08E00A2802D100237B6010E00B2888
:106D800003D1FDF7AFFC60600AE0FF2808D1FDF7F2
:106D9000DDFBF8E7707802F05DFBF4E704233B705D
:106DA0005D4B1B78002B00F027865C4B62681A60F5
:106DB0005B4B2AB91A6842F008021A6000F01CBE48
:106DC0001A6822F008021A6000F016BE7178534A61
:106DD000092925D8DFE801F005080B0E12181B1E43
:106DE000212311680B441AE01168CB1A17E01168CF
:106DF0004B4314E0116891FBF3F310E0116891FB31
:106E0000F3F003FB10130AE011680B4007E0116870
:106E10000B4304E011684B4001E01368DB4313604F
:106E200012683F4B2AB91A6842F008021A6000F053
:106E3000E3BD1A6822F008021A6000F0DDBD374A8F
:106E400012689A42364B196804DD21F0030141F0C3
:106E5000040108E00BBF21F0060121F0050141F01B
:106E6000010141F0020119602AB91A6842F00802D2
:106E70001A6000F0C1BD1A6822F008021A6000F022
:106E8000BBBD72780C2A00F2B785DFE802F007106C
:106E900019222B344D565F68717A8300204A12689C
:106EA000140740F1A9851A4A536200F0A5BD1C4A97
:106EB0001268100700F1A085154A536200F09CBDCE
:106EC000174A1268D10740F19785114A536200F0C2
:106ED00093BD134A1268D20700F18E850C4A5362A3
:106EE00000F08ABD0E4A1268570740F18585084AAE
:106EF000536200F081BD0A4A126812F0050F00F0DB
:106F00007B85034A536200F077BD00BFCC1100209F
:106F10006405002046110020AB0C00209C0C0020D2
:106F2000A00A0020980A0020A84A1268960740F19B
:106F30006385A74A536200F05FBDA44A12689507B3
:106F400000F05A85A24A536200F056BD9F4A12686B
:106F5000D40640F151859E4A536200F04DBD9B4AD4
:106F60001268900640F14885994A536200F044BD8A
:106F7000964A1268510640F13F85954A536200F0E7
:106F80003BBD924A1268120640F13685904A536220
:106F900000F032BD8D4A1268D70540F12D858C4A2C
:106FA000536200F029BD916A072900F22585481C2B
:106FB0009062506A02EB8101C862536200F01CBD0E
:106FC000926A834B002A00F01785013A9A6203EB1C
:106FD0008202D26A5A6200F00FBD73782E2B04D859
:106FE0007C4A0121D15400F007BDFF2B7FF40CAE89
:106FF000774B012283F84C2000F0FEBC73782E2BD7
:1070000004D8744A0021D15400F0F6BCFF2B7FF461
:10701000FBAD6F4B002283F84C2000F0EDBC6C4CB4
:1070200094F84D2082B95E1C4FF00A0204D16A4BDD
:107030001B685A43226501E05343236502F06EF951
:107040000123606584F84D306B78042B00F2D48402
:10705000DFE813F0050045007F00C4001B0002F0CC
:107060005DF9626D216D801A80EAE072A2EBE07238
:107070008A42574B04D9002283F84D2000F0BCBC53
:107080005A6A013A5A6200F0B7BCA87804F0CCFA08
:1070900040B94E4B84F84D001A6822F010021A6075
:1070A00000F0AABC236D4A4DA3B102F037F96B6D15
:1070B0002A6DC01A80EAE073A3EBE073934209D90A
:1070C000002385F84D30414B1A6842F010021A60D7
:1070D00000F092BC636A013B636200F08DBCA8784B
:1070E000022894BF0020012004F025FCAA78012189
:1070F000022A92BF02FA01F3D31E5B0001FA03F3E6
:1071000013EA000609D0002384F84D302F4B1A688B
:1071100022F010021A6000F06FBC226D2C4D9AB163
:1071200002F0FCF86A6D296D801A80EAE072A2EB29
:10713000E0728A4208D9254B85F84D601A6842F002
:1071400010021A6000F058BC636A013B636200F0F1
:1071500053BCA8787C21022894BF002001206A46F5
:1071600004F0F6FBAA780220022A8ABFD31E53003D
:107170005B0000FA03F39DF8021013EA010709D03F
:10718000002384F84D30114B1A6822F010021A6067
:1071900000F032BC226D0E4D9AB102F0BFF86A6D5C
:1071A0002E6D801A80EAE072A2EBE072B24208D93A
:1071B000064B85F84D701A6842F010021A6000F014
:1071C0001BBC636A013B636200F016BCA00A00208E
:1071D000640500201E1300209C0C0020A8787C2150
:1071E000022894BF002001206A4604F0B1FBAA786F
:1071F0000120022A92BF02FA00F3D31E5B0000FABC
:1072000003F39DF8021013EA010708D0002384F865
:107210004D30AB4B1A6822F010021A60ECE3226D7D
:10722000A84D92B102F07AF86A6D2E6D801A80EA4C
:10723000E072A2EBE072B24207D9A14B85F84D7023
:107240001A6842F010021A60D6E3636A013B636277
:10725000D2E3B678052E1DD8062000FB02609A49BD
:1072600041F82030994B9B7E002B00F0C583002A0B
:1072700000F0C283531E18205843062303FB02620A
:1072800000F5C36001EB820100EB8600042201F0EF
:107290004BFAB1E3FF2E7FF42BA88B4E8AB9182549
:1072A000002405F5C06071192044214404220434EF
:1072B00001F03AFA182CF4D11835B5F5FC7FEFD16E
:1072C0009AE300246B7818205A1E5043062202FBD2
:1072D000034100F5C36000EB840006EB810104224A
:1072E000013401F021FA062CECD185E37378142BDC
:1072F0003FF68AAC764A9278052A19D8062101FB16
:107300000323714951F82320724B7A601B78002BBC
:1073100000F07283704B1A60694B22B91A6842F010
:1073200008021A6068E31A6822F008021A6063E330
:10733000FF2A7EF4DDAF644E8BB91825002405F5D5
:10734000C0607119204421440422043401F07FFA02
:10735000182CF4D11835B5F5FC7FEFD14CE300249F
:107360006B7818205A1E5043062202FB034100F599
:10737000C36000EB840006EB81010422013401F0BC
:1073800066FA062CECD137E37778142F3FF63CAC45
:10739000B678300634D50024A87840FA04F3D9072B
:1073A00015D5022894BF00200120022C8ABFE11EBF
:1073B00061014901464B41F00201C9B25E7804F017
:1073C00039FD062303FB06463F4B43F826003F4B9F
:1073D0009B7E8BB16B787BB15A1E182050430622DE
:1073E00002FB0343384900F5C36000EB840001EB66
:1073F0008301042201F098F90134062CCCD1FBE280
:10740000052E3EF675AF022E8ABFF11E71014901AD
:1074100041F00201C9B294BF0020012004F00AFD2E
:10742000062101FB0766294B274A9B7E42F826006E
:10743000002B00F0E1826B78002B00F0DD82244805
:1074400018258478581E684301FB034100F5C3608A
:1074500002EB810100EB8400042201F065F9CBE22C
:1074600072781D4B0A2A53D8DFE802F0060B11167A
:107470001C243A3F44494D0018491A6809680A44D7
:1074800003E016491A680968521A1A6040E0134965
:107490001A6809684A43F8E710491A68096892FBB4
:1074A000F1F2F2E70D4A1968126891FBF2F002FB63
:1074B0001012EAE7094A11681A680A40E5E700BFB6
:1074C000A00A002064050020A40A00200400002077
:1074D000980A0020AB0C00209C0C0020B80C002067
:1074E000A04A11681A680A43CFE79E4A11681A68D1
:1074F0004A40CAE79B4A1168C943116008E01A680C
:1075000098490A6004E0974A186811681060196089
:107510001A68954B22B91A6842F008021A606BE2A9
:107520001A6822F008021A6066E2904B1B68C6F8DF
:107530000330FDF7FFF95FE28C4B1B68C6F80330A0
:10754000FEF75CF858E27378052B00F25582DFE80D
:1075500003F003090F151B21834B1A6802F00F0279
:107560001A6049E2804B1A6822F010021A6043E266
:107570007D4B1A6822F020021A603DE27A4B1A68AD
:1075800022F040021A6037E2774B1A6822F080023C
:107590001A6031E2744B1A6822F480721A602BE28E
:1075A00072782E2A3FF630AB714901EB8202936567
:1075B00022E26F4B6D49D3F814210A60D3F81821E9
:1075C00068490A60D3F81C2167495A62D3F8202120
:1075D0000A60D3F82421674983F84D20D3F8282185
:1075E0005A65D3F82C211A6593F83021885C08B1CC
:1075F00001208854002283F83421FDE1B378052B63
:107600003EF676AE7278142A3FF6FEAA062101FBFA
:107610000233564A5849126841F82320ECE102F03F
:1076200011FAE9E102F010FAE6E102F01FFAE3E1F3
:1076300002F01DFAE0E102F01BFADDE102F019FAB6
:10764000DAE1727812B1012A05D00DE0484B01222F
:1076500083F82020D0E1B3F5006FBEF449AE444971
:1076600081F820204B62C7E103233B70C4E1404B0B
:10767000022283F82020BFE13D4A4FF0FF3002F1A3
:10768000580343F821003B480023435401312F297C
:10769000F2D182F820305362936282F84D30334A3F
:1076A0001360304A1360304A1360A5E1334A127DFB
:1076B00092070AD4B3F5006FBEF41AAE2C4A042127
:1076C00082F82010C2F8383196E108233B7093E12C
:1076D0002B4A01211170294A2A4C9178B3F5006F89
:1076E000217026D2127D12F0010522D1184669467A
:1076F00000F0DEFE9DF80030257263709DF80130C9
:10770000A3709DF80230E3709DF8063023719DF858
:10771000053063719DF80430A3719DF80330E37167
:107720000123E15C227A01330A44082B2272F8D14A
:1077300062E101230021E1540133082B114AF9D100
:107740001378137258E17378012B2FD01CD3022BBE
:107750003DD10B4B01221A70084B0A4A9B781370DB
:1077600000232BE0B80C0020A00A00209C0C002075
:10777000640500201E130020A40A0020040000203D
:10778000A00C0020A10C00209C4B01221A709C4BE5
:107790009C4A9B7813709C4B186800230133C118D6
:1077A00011F8011C082BD154F8D125E11722FA71E8
:1077B0007B71DE222A23BA713B711DE193490133AB
:1077C000194411F8091C082BD154F7D114E10323F3
:1077D0003B7011E17378032B00F20E81DFE803F0B8
:1077E000020F1B1F8A4B93F82020FA7193F84D204B
:1077F000D3F83831BA711A0A7A713B71FCE0844BC4
:1078000093F82020FA7193F84D205B6ABA711A0A36
:107810007A713B71F0E07F4B1B687B60ECE07E4B44
:107820001B687B60E8E07278002A40F0E5807B4AC4
:107830009178002940F0E08040F2D242934240F03B
:10784000DB8040F2FF7000F010FF00F072FE0120BC
:10785000FCF7BCFED0E07278714B02B101221A70C5
:10786000EA78704B1A706A4B93F83C116E4B1970A2
:107870006E4900230B706E490B706E4B19780A43EA
:107880001A70B9E0624B012283F83D21B4E07578AB
:1078900015B1012D0FD01BE0042240F2FB706946A8
:1078A00000F0D5FF009BD6F803209A4206BF0123C3
:1078B0007B607D60A0E0B3782A2B06D140F2FB709C
:1078C0005D49042200F030FF96E003233B7093E013
:1078D00003233B7090E07278032A3CD8DFE802F083
:1078E00008022D384A480022D0F84011054610E021
:1078F000474AD2F84011092907D8481CC2F840016C
:1079000002EB8102C2F8443176E009233B7073E058
:1079100001328A4270D04948960050F822409C4279
:10792000F6D18319481E824204D25C68013243F8C2
:10793000044BF7E7C5F840015EE0354A0023C2F882
:1079400040313E4A002199500433282BF9D153E0AD
:107950000A237B6050E003233B704DE07378812B5A
:107960004AD1B2782D4B922A46D19A79A32A43D193
:107970005A79B42A40D11A79C52A3DD1DB78D62B61
:107980003AD12F4B4FF400725A61C022C3F8102431
:1079900001F0F6FF01F0C2FC044601F0BFFC001B41
:1079A0000028B8BF4042B0F57A7FF6DBFCF715FE41
:1079B00005F006FF002006F0D7FB0021214805F066
:1079C000D8FA204805F03AFA1F4804F0ADFD05F05A
:1079D00015FB4FF0804006F01DFC0020FCF7F6FD83
:1079E0000AE040F2D242934206D1094B012283F8C9
:1079F0006C2101E00223237003B0F0BDA00C002035
:107A000004000020A10C002000000020004000081D
:107A1000640500209C0C0020B80C0020980A00206F
:107A20000811002054110020FF1200204C110020EA
:107A30004D130020091100209B0A0020A8060020F9
:107A40000008014008000240002401404849F8B500
:107A500000230B604749484A0B60484953629362D0
:107A60000B6082F84D3082F84C3082F83431164683
:107A7000434A4FF0FF3142F82310424A0024D454C5
:107A800001332F2BF4D1022C8ABFE11E6101490181
:107A900094BF0025012541F00601C9B2284604F033
:107AA000C9F9022C8CBFE11E6101374B88BF490127
:107AB00041F00C0143F82400C9B2284604F0BAF999
:107AC000A700324B0134062CD851DCD10024304BB6
:107AD000E0B203EB4413D97A0134C1F10801C9B211
:107AE00002F0FCF9062CF2D100232A4A0021995019
:107AF0000433B3F5806FF8D1274FBB7E8BB11825C7
:107B00000024264905F5C06029442044214404226C
:107B1000043400F09CFE182CF3D11835B5F5FC7F29
:107B2000EED1FB7E2BB13B7903F0EF02012A0DD1A0
:107B30000EE04FF4A7641A4920462144042204347D
:107B400000F085FEB4F5C36FF5D1ECE7212B01D130
:107B5000012300E0002386F86D317B7D23B1FCF723
:107B6000ADFD08B1012300E0002386F82030F8BD08
:107B70009C0C0020B80C002064050020A00A002006
:107B8000BC0500201E130020D4100020BC0C0020D7
:107B9000CC110020D40C002004000020A40A0020F6
:107BA0009C070020F7B50F4E0F4CC6F803300F4B63
:107BB00086460F46B270002294E803001A708DE8E2
:107BC000030086F800E07770FEF760FA21786368BA
:107BD000074A82F86E119DE8030084E80300184606
:107BE00003B0F0BD980A0020B00C0020AB0C0020C0
:107BF00064050020014B93F86E0170476405002076
:107C0000F7B51F4E024653780C4696E803008DE800
:107C100003001C4900270B7093786D464B70D37896
:107C20008B7013798B7153794B7193790B71D37975
:107C3000CB70154B1F70FEF729FA144B1978334699
:107C400071B9217032786170A2707278E270F27945
:107C50002271B27962717279A2713279E27109E0AE
:107C6000012907D13A460A4911444978A154013201
:107C7000082AF8D195E8030083E8030003B0F0BDBB
:107C8000B00C0020980A0020AB0C0020A00C0020B3
:107C9000A10C00202DE9F047A34B8EB01B78A34C1C
:107CA00013B994F86F3163B1A14B1B78062B08D040
:107CB0000A2B06D003F0EF030F2B1CBF002384F820
:107CC0003C3194F83C31994A591E0129994E41D8CA
:107CD0009949012BCA6814BF082307238DF818306F
:107CE00094F87031079232788DF8193000238DF8AE
:107CF0001A30C2B98B688DF827208DF820308F4B51
:107D000019788DF8211059788DF82210D9798DF8CD
:107D1000231099798DF8241059791B798DF8251045
:107D20008DF826300AE0012A08D1854901330EAAD0
:107D3000595C1A44082B02F8191CF6D1814B1B78A8
:107D4000002B40F0B88006A801F026FA002800F0C9
:107D50009C83B0E0032B2AD192F86D511DBB337880
:107D60008BB9754F754DB87897F801802A788044A3
:107D700090446A789044EA799044AA7990446A7968
:107D800090442A7920E0012B40F095806C4B585D9F
:107D9000013500F01BFF092DF8D18CE0072B6AD1CB
:107DA00092F86D3173B3654804F040FB83E0042B17
:107DB000F4D1614F614DB87897F80180002301221A
:107DC0006B702A706B608044904400F0FFFE7878FE
:107DD00000F0FCFE287800F0F9FE687800F0F6FE6E
:107DE000E87900F0F3FEA87900F0F0FE687900F081
:107DF000EDFE5FFA88F8287900F0E8FE404600F0D2
:107E0000E5FE58E032782ABB4B4B93F802C093F85A
:107E100001804A4B8DF800C01F785D78C444D87942
:107E20008DF80270674499798DF803503D445A7972
:107E30008DF8040028441B798DF8051001448DF855
:107E400006200A448DF8073013448DF801808DF820
:107E5000083008E0012A06D1394A9A5C0DF803205F
:107E60000133092BF8D1374B1B7823B3684609211E
:107E700001F0BAFD1FE0082B1DD1304A002301207C
:107E80005370107053602C4A8DF80200917852782C
:107E90008DF800108DF801200A4402448DF803305B
:107EA0008DF804308DF805308DF806308DF80730E8
:107EB0008DF80820D7E7244B224F1A789946002ADC
:107EC00000F09780214B224D1B78013B062B00F2DE
:107ED0008C80DFE803F004043F8A8A8A6800164A2F
:107EE000297893688DF836108DF8303080238DF81E
:107EF00031308A238DF8323000238DF833308DF8FD
:107F000034308DF835308DF829308DF82A30D3682B
:107F100007210B933B788DF82810002B65D10AA818
:107F200001F03AF961E000BFAA0C002064050020CE
:107F3000980A0020A00C002004000020B00C0020B3
:107F4000A10C0020EC1000204D130020FF12002097
:107F50004C110020DFF840832A7898F8020098F846
:107F600001A082440AF10A0A924400F02FFE98F818
:107F7000010000F02BFE802000F028FE8A2000F097
:107F800025FE002000F022FE002000F01FFE002051
:107F900000F01CFE5FFA8AFA287800F017FE5046BF
:107FA00000F014FE21E0BC4B2A78987859788023A1
:107FB0008DF80E308A238DF80D108DF80F300144A6
:107FC00000238DF810308DF811308DF812300A3101
:107FD0003B788DF813200A448DF80C008DF814209E
:107FE0001BB103A8092101F0FFFC00232B7089F8C5
:107FF0000030002384F83C31337084F86F3194F8FA
:108000006C3113B10120FCF7E1FA94F83D21A34B48
:1080100052B193F86D21D2F1010238BF002283F8EA
:108020006D21002283F83D213B78002B45D106A825
:1080300001F0FCF8002840D09DF81830062B3CD900
:10804000974B9DF820201A709DF821205A709DF8BA
:1080500022209A709DF823209A719DF824205A714D
:108060009DF825201A719DF82620DA709DF81930A8
:1080700084F87031884B1A69079B934203D1874B70
:10808000012283F86F2101F049F9864B0022186024
:10809000854B1A709DF8183094F82020072B0CBFE0
:1080A0000123022384F83C31531E012B7F4B02D95C
:1080B000052A40F0CF800022EBE094F86D51002DAE
:1080C00071D103A800F09CFD00286CD000F0B6FD33
:1080D00010B1724B83F8715194F871119DF80C0036
:1080E0004A1CD2B22144092A6C4B84F8712181F8D0
:1080F000720140F0E480002283F87121664A93F80F
:1081000072315178994207D092F82710002900F077
:10811000D6808B4240F0D38092F827209A4204BF49
:10812000012384F86F3100231A465C4D05F5B971BF
:10813000595C01330A44082BD2B2F6D195F87A3152
:1081400093422CD1564B95F873211A7095F87421EF
:108150005A7095F875219A7095F876219A7195F86C
:1081600077215A7195F878211A7195F87921DA708A
:1081700001F0D4F84E4B4F4A186095F820100023B8
:108180001370032285F83C214A1E012A85F87131BB
:10819000464A02D9052918BF012313708FE0042332
:1081A00085F83C318BE094F86D313C4D83B13C480F
:1081B00003F0EFFF60B101F0B1F83D4B3D4A1860AC
:1081C00000231370032285F83C2195F820203AE023
:1081D00094F86D61002E44D13B78002B41D00AAD5C
:1081E000284601F0EBFB00283BD033463246E95CE1
:1081F00001330A44082BD2B2F9D19DF830109142D4
:108200002CD1274B9DF829201A709DF82A205A70EE
:108210009DF82B209A709DF82C209A719DF82D20A6
:108220005A719DF82E201A719DF82F20DA7001F0F6
:1082300075F81F4B1F4A186000231370072284F83B
:108240003C2194F82020511E01291946174B03D9CF
:10825000052A01D001221CE0197030E084F83C317D
:108260002DE094F820300D4D013B012B27D86B6A8F
:10827000B3F5006F20D2FCF721FAE8B1686A08492B
:10828000431C6B6200F014F9092385F83C31074B5D
:1082900001221A7013E000BF0400002064050020D2
:1082A000980A0020EC120020ED100020AB0C0020FA
:1082B000F4120020FE120020002384F8203094F8ED
:1082C0002030734D042B04D1724E3278170640F1E2
:1082D000B18094F83C3113F0FB0F05D0082B03D08C
:1082E000062B01D0FDF7D2FE94F83C31092B79D151
:1082F00001F014F8664A684D52692B68801A80EACA
:10830000E072A2EBE0729A4208D9644B1A78012A13
:1083100004BF02221A7001F001F8606100F0FEFF54
:10832000A3696A68C01A80EAE073A3EBE073934222
:1083300008D95A4B5A78012A04BF02225A7000F019
:10834000EDFFA06100F0EAFFE369AA68C01A80EAC5
:10835000E073A3EBE073934208D9504B9A78012A5B
:1083600004BF02229A7000F0D9FFE06194F84C300B
:10837000002B37D0464B93F83421002A32D147499D
:108380008B5C022B2BD1424B03F1580050F822009A
:10839000451C22D0424983F8302109680022C3F8E5
:1083A000141140490968C3F81811596A5862C3F892
:1083B0001C113D490968C3F8201193F84D1083F84A
:1083C0004D20C3F82411596D0122C3F82811196DED
:1083D00083F83421C3F82C1104E000238B540132BC
:1083E0002F2ACCD194F83C11294B092906D193F8B6
:1083F0002020022A04BF052283F82020D4F840213F
:10840000234B002A41D009293FD193F8201001299C
:108410003BD1586A00231E4901F5A27454F8234049
:10842000A04203D1052381F820302EE0013393428E
:10843000F1D12AE095F83C3113F0FB0F25D0082B41
:1084400023D0062B21D0D5F83801184CD6F80330AC
:10845000B0F5006F6270636012D2314600F03BF9F4
:10846000D5F83801314600F0A8F830B1D5F83831E8
:108470000133C5F83831652300E00723237004E099
:1084800007232370002385F820300EB0BDE8F08765
:1084900064050020980A0020A81200201E13002066
:1084A0009C0C0020B80C0020A00A0020B00C00207A
:1084B000C0EBC00038B500F5006500200C46024650
:1084C0000321FCF7A9F90020C5F307210246FCF7B8
:1084D000A3F90020E9B20246FCF79EF9002001460C
:1084E0000246FCF799F92070002001460246FCF78D
:1084F00093F96070002001460246FCF78DF9A070E8
:10850000002001460246FCF787F9E0700020014692
:108510000246FCF781F92071002001460246FCF773
:108520007BF96071002001460122FCF775F9A0710A
:1085300038BD38B54FF40064002006210122FCF755
:108540006BF9002005210246FCF766F90020014680
:108550000122FCF761F98307F3D5002002210246CE
:10856000FCF75AF90020C4F307210246FCF754F93E
:108570000020E1B20246FCF74FF90025B5F13F0EAD
:10858000DEF100024FF0000052EB0E020146013511
:10859000FCF742F9402DF1D1002005210246FCF7FD
:1085A0003BF9002001460122FCF736F9C307F3D45A
:1085B0004034B4F5804FBFD138BDF7B5C0EBC00033
:1085C00000F5006500200C4602460321FCF724F963
:1085D0000020C5F307210246FCF71EF90020E9B28E
:1085E0000246FCF719F9002001460246FCF714F98F
:1085F0000746002001460246FCF70EF90646002019
:1086000001460246FCF708F90546002001460246ED
:10861000FCF702F98DF80300002001460246FCF742
:10862000FBF88DF80400002001460246FCF7F4F840
:108630008DF80500002001460122FCF7EDF82378B3
:108640008DF80600BB420DD16378B3420AD1A378FE
:10865000AB4207D1DDF80300D4F80330C31A584207
:10866000584100E0002003B0F0BD38B501220446B7
:108670000D4600200621FCF7CFF800200521024618
:10868000FCF7CAF8002001220146FCF7C5F8820772
:10869000F3D5002002210246FCF7BEF80020C4F307
:1086A00007210246FCF7B8F80020E1B20246FCF7C9
:1086B000B3F8002029460122FCF7AEF8002005217E
:1086C0000246FCF7A9F8002001460122FCF7A4F8B5
:1086D000C307F3D438BD38B5C0EBC0050C4605F56B
:1086E00000600978FFF7C1FF05F601006178FFF728
:1086F000BCFF05F60200A178FFF7B7FF05F60300FF
:10870000E178FFF7B2FF05F604002179FFF7ADFF2E
:1087100005F605006179FFF7A8FF05F60600A179C7
:10872000BDE83840FFF7A1BF2DE9F04104460F46F0
:108730001646002006210122FCF76EF800200521D4
:108740000246FCF769F8002001460122FCF764F8B4
:108750008507F3D5002002210246FCF75DF80020D2
:10876000C4F307210246FCF757F80020E1B20246A5
:10877000FCF752F80025B54242D0013414F03F080E
:10878000795D04D0721EA81A4242424100E00122E3
:108790000020FCF741F8B8F1000F2FD1731E9D4265
:1087A0002CD2002005210246FCF736F800200146B5
:1087B0000122FCF731F810F00100F2D1062101226C
:1087C000FCF72AF8002005210246FCF725F80020D6
:1087D00001220146FCF720F88207F3D50020022190
:1087E0000246FCF719F80020C4F307210246FCF703
:1087F00013F80020E1B20246FCF70EF80135BAE7A3
:10880000002005210246FCF707F80020014601225E
:10881000FCF702F8C307F3D4BDE8F08110B50446B5
:10882000002003210246FBF7F7FF0020C4F30721D5
:108830000246FBF7F1FF0020E1B20246FBF7ECFF36
:10884000BDE81040002001460122FBF7E5BF70B5EE
:10885000044600200E46154603210246FBF7DCFFC6
:108860000020C4F307210246FBF7D6FF0020E1B247
:108870000246FBF7D1FF0024AC420AD06A1EA31ABD
:1088800000205A4201465A41FBF7C6FF30550134D9
:10889000F2E770BD37B5002005210246FBF7BCFFAB
:1088A000002001460122FBF7B7FF10F07104F2D15E
:1088B00000F034FD054600F031FD401B0028B8BF34
:1088C0004042B0F5FA6F09DA4CB940F2FF70FFF799
:1088D000A5FFB0F142035C425C41ECE71CB1294BBF
:1088E0001B78002B3CD040F2FF700021FFF7BDFE4B
:1088F000FFF71FFE002024494022FFF715FF002448
:10890000B42202FB04F0214900F58070FFF70CFF50
:10891000A01C40011E4920220134FFF705FF062C50
:10892000EED1002301934FF4C364204601A9042231
:108930000434FFF7F9FEB4F5FF6FF6D1002301937D
:108940004FF4A764204601A904220434FFF7ECFE8B
:10895000B4F5C36FF6D140F2FF704221FFF785FEF8
:10896000002009494022FFF772FF402409492046B0
:10897000214420222034FFF76AFFB4F5807FF5D12F
:1089800003B030BD70110020040000206013010806
:10899000401301088C11002030B5054687B05548BA
:1089A00006F024F94FF40030012105F0BDF9042050
:1089B000012105F0ADF90420002105F0C1F90820DE
:1089C000002104F0BDFE03238DF8063018230DEBC3
:1089D00003048DF80730042324F8143D464821464B
:1089E00004F01FFE48238DF8073043480823214632
:1089F000ADF8043004F015FE02A806F085F90B2D41
:108A000025D8DFE805F02406090C0F1215181B1EE7
:108A100020224FF461531CE04FF4964319E04FF4C9
:108A2000E14316E04FF4164313E04FF4614310E0C6
:108A30004FF496330DE04FF4E1330AE04FF4613325
:108A400007E02E4B05E02E4B03E02E4B01E04FF4E8
:108A500016530293029B02A95B082648029306F074
:108A60000FF92623002401258DF8003068460723DE
:108A70008DF801308DF802408DF8035004F0DCFED3
:108A80001C4840F2FF3106F027FA224619482821F7
:108A900006F067F92A46174840F2277106F061F997
:108AA0002A46144840F2266106F05BF92A4611482E
:108AB00040F2255106F055F922460E4840F2244175
:108AC00006F04FF922460B4840F6460106F049F9F8
:108AD0002246084840F66A1106F043F92246054846
:108AE000602106F03EF90348294606F02EF907B04A
:108AF00030BD00BF004400400008014090D003009A
:108B000020A1070040420F00684620F007018D4673
:108B1000294919B50B889C061AD5284BDB6898079C
:108B200001D58B8814E0264B1A6858680132202A38
:108B300008BF0022824205D01C6888881919C0B27B
:108B400008721A601F4A0A2111609A6A1E4B1A6045
:108B5000194803881A061BD51B4B1A68C2B9184B53
:108B6000DC6A196B8C420FD0144902240C61196B1A
:108B70004C1C1C63194491F83410C9B28180196BE4
:108B8000202905D11A6303E040F2277106F0E9F8C5
:108B9000094803885B060BD540F2266106F0C0F950
:108BA000074B1A6BDB6A9A4202D1044B02225A61CC
:108BB000BDE8194085467047004400400008014068
:108BC000E006002054130020501300200A4BDA6AFC
:108BD000196B0132202A08BF00228A420AD0D96AC2
:108BE000194481F83400DA62044840F22771012206
:108BF00006F0B7B8704700BFE00600200044004010
:108C00000A4B59681A6891420BD05A68511C596036
:108C10001A44127A02705A68202A04D100225A603B
:108C200001E0002070470120704700BFE0060020EF
:108C3000014B9862704700BFE0060020044B1A7891
:108C400002F0FF0012B100221A700120704700BF2D
:108C50005813002008B5FBF7C0FC044B00225A60F3
:108C60001A60BDE80840FBF7B6BC00BFE006002074
:108C700010B5441E14F8010F10B1FFF7A7FFF9E774
:108C800010BD00BF684620F007018D4631B5264C67
:108C9000264B25681B680135082D08BF00259D421D
:108CA00086B04FF0000037D001A903F0A9FF9DF86E
:108CB0000C302268042B1E4B03EB021206D101215B
:108CC00051702168029A03EB011105E000215170F7
:108CD0002168019A03EB01114A609DF80D20022AD8
:108CE000226808BF012103EB021218BF0021917016
:108CF00022689DF80E10120199540022216801A8E3
:108D0000104403EB01111144C07A0132082A0872A1
:108D1000F4D1054B1D6001E003F058FF06B0BDE83B
:108D200031408546704700BFE81300205C130020E7
:108D300068130020684620F007018D4631B5264CA7
:108D4000264B25681B680135082D08BF00259D426C
:108D500086B04FF0010037D001A903F051FF9DF814
:108D60000C302268042B1E4B03EB021206D10121AA
:108D700051702168029A03EB011105E00021517046
:108D80002168019A03EB01114A609DF80D20022A27
:108D9000226808BF012103EB021218BF0021917065
:108DA00022689DF80E10120199540022216801A832
:108DB000104403EB01111144C07A0132082A0872F1
:108DC000F4D1054B1D6001E003F000FF06B0BDE8E3
:108DD00031408546704700BFE81300205C13002037
:108DE00068130020684620F007018D4631B52A4BF4
:108DF0002A4A1968126886B0914204D101200021E4
:108E000003F01EFE43E01A68254901EB0212507878
:108E100000F0FF0248B104228DF80C2000220192DC
:108E20001A6801EB0212526806E018688DF80C20EF
:108E300001EB00104068019002921A6801EB0212E7
:108E4000927802F0FF001AB102228DF80D2001E0A5
:108E50008DF80D001A6812018A5C8DF80E20002230
:108E60001C680D4801EB04141444257A01AC144429
:108E70000132082AE572F3D1036801330360036805
:108E8000082B04BF0023036001A803F0E5FD06B032
:108E9000BDE8314085467047641300206013002010
:108EA000EC130020F0B501388BB00F4615460C23AB
:108EB000072813D8DFE800F0100E0C0A0812060489
:108EC00002220CE004220AE0102208E0142206E04C
:108ED000282204E0642202E0C82200E008228DF883
:108EE000143003238DF815300023ADF816208DF8CB
:108EF000133003F0B7FC4FF00070012104F014FFB1
:108F00000120014604F004FF0820012104F000FFC5
:108F10000820002104F014FF4FF4EA10012104F0AE
:108F20000FFC03238DF8063018230AAC8DF80730A8
:108F30004FF4007324F8243D2146784804F071FB77
:108F4000042321468DF8073074484FF480730024C1
:108F50000126ADF8043004F064FB03A88DF812403C
:108F60008DF80C408DF80D608DF80E408DF80F4097
:108F70008DF810608DF8116003F081FCB7F5006F7B
:108F80008DF818408DF819408DF81A600FDA7B01C2
:108F9000ADF81C304FF6FF73ADF81E40ADF8203031
:108FA000ADF82230ADF824408DF826600DE04FF684
:108FB000FF73ADF81C40ADF81E40ADF82030ADF8A1
:108FC0002230ADF824408DF8264006A803F0B6FC08
:108FD000012300228DF818308DF819208DF81A30F1
:108FE00095B1B5F5006F0FDA6901ADF81E204FF6A7
:108FF000FF72ADF81C10ADF82020ADF82220ADF8BE
:1090000024308DF826300DE04FF6FF71ADF81C20AE
:10901000ADF81E20ADF82010ADF82210ADF82430C8
:109020008DF8262006A803F089FC02238DF818305D
:109030007B13FF0047F0040700260124ADF81E70E3
:1090400006A84FF6FF77ADF81C308DF819608DF843
:109050001A40ADF82070ADF82270ADF824608DF89C
:10906000264003F06BFC0323B5428DF818308DF8D1
:1090700019608DF81A4010DD6B13ED0045F0040502
:10908000ADF81C30ADF81E50ADF82070ADF8227070
:10909000ADF824408DF826400CE00423ADF81C60A8
:1090A000ADF81E30ADF82070ADF82270ADF8244058
:1090B0008DF8266006A803F041FC01240726002550
:1090C000142302A88DF808308DF809608DF80A5035
:1090D0008DF80B4004F0B0FB152302A88DF8083082
:1090E0008DF809608DF80A508DF80B4004F0A4FB50
:1090F000132302A88DF808308DF809608DF80A5006
:109100008DF80B4004F098FB2146022003F098FCF8
:109110001020214603F094FC0BB0F0BD000C014080
:1091200037B50220002103F08BFC1020002103F052
:1091300087FC0021012003F083FC00240725142371
:1091400001A88DF804308DF805508DF806408DF893
:10915000074004F071FB152301A88DF804308DF849
:1091600005508DF806408DF8074004F065FB132389
:1091700001A88DF804308DF805508DF806408DF863
:10918000074004F059FB03F06DFB4FF000702146DF
:1091900004F0CAFD03B030BDF0B5437887B0044693
:1091A000426833B104238DF80C30002302920193FE
:1091B00003E08DF80C3001920293A37803B10223EF
:1091C0008DF80D3023788DF80E300023E11801AAB8
:1091D0001A44097A0133082BD172F7D101A803F0A0
:1091E0003BFC042816D10E4F0E4B3D681B68013521
:1091F000082D08BF00259D420ED03E680A4B03EBA8
:10920000061694E80F0086E80F00012001463D6035
:1092100003F016FC012000E0002007B0F0BD00BF05
:109220006013002064130020EC13002030B50D4BB8
:109230000D4C054622681B689A420ED023685A1CC2
:1092400022600A4A02EB03130FCB85E80F00236864
:10925000082B04D10023236001E0002030BD012051
:1092600030BD00BFE81300205C130020681300200D
:10927000684620F007018D4601B5BDE801408546EE
:10928000704700BF684620F007018D4601B5124BBC
:1092900019781A4679B15B68013353600F4B19682E
:1092A000013119600E4B196811B119680139196043
:1092B0000023137001E001221A700A4B1A683AB1B8
:1092C0001A68013A1A601B6813B9074B01221A7019
:1092D000BDE801408546704734070020AC0C0020F3
:1092E00050130020541300205813002008B5042008
:1092F00004F014FF48F6A04004F01CFF012004F025
:109300001FFF05480321002204F06CFBBDE8084064
:10931000012004F029BF00BF9AC30200014B586826
:10932000704700BF34070020F0B593B00325002438
:109330000227424801A9ADF804708DF806508DF857
:10934000074004F06EF911233D4801A9ADF804303F
:109350008DF806508DF8074004F063F901200146AE
:1093600004F0CAFC01214FF4007004F0D1FC354830
:1093700003F064FD344B33480793344B07A908933B
:1093800080230C934FF480730D934FF480630E93FE
:1093900020230F934FF40053109309940A950B94D4
:1093A000119403F0BBFD2748012103F0E2FD0126E3
:1093B0004FF46023264802A9049302948DF80C60B0
:1093C0008DF80D6005948DF8185003F0D9F82048F9
:1093D0000A2132462B4603F04BF91D480E213A462E
:1093E0002B4603F045F92B46194809212A4603F07C
:1093F0003FF9224616484FF4FC6103F000F9144887
:10940000314603F0F3F81248314603F0E6F810480D
:1094100003F0FEF80E4803F000F90028FAD10C48DA
:1094200003F0FFF80A4803F001F90028FAD10848D0
:10943000012103F0FFF813B0F0BD00BF000C0140A4
:1094400000100140080002404C2401403C0700206D
:1094500000240140042805D0082807D070B9084B23
:10946000188801E0064B588880B27047044B9888F2
:1094700040F26B1380B258430013704700207047CE
:109480003C070020014B00221A607047440700206F
:10949000034B9B7A13B1034B05225A60704700BF00
:1094A0007814002044070020014B04225A607047C2
:1094B00044070020034B1A7A202A04BF00221A72A4
:1094C000704700BF440700207047212810B508D11D
:1094D000104B1B681B7803F07F03212B10D0022058
:1094E00010BD2028FBD10B4B0B4A1B681B78107258
:1094F00003F07F03212B094B18BF00230BB9EEE7C4
:10950000074B044A0024126820469361548298470E
:10951000204610BDD8140020440700207195000893
:1095200059950008074B1B681B7803F07F03212B1C
:1095300006D100F0DF0002280CBF00200220704797
:1095400002207047D814002021B9022834BF00201F
:10955000022070470220704720B9034B08221B6885
:109560001A82704701487047D81400204400002038
:1095700020B9034B08221B681A82704701487047C4
:10958000D81400204400002008B5032006F06AFC2F
:10959000064B0246D8604FF48871054806F014FA6D
:1095A000BDE80840032006F0DCBA00BF44070020F5
:1095B000DE14002038B5334B00241B68C0259C7294
:1095C0005D72DC72204606F03BFA20464FF40071D3
:1095D00006F053FA2046102106F066FA2046402194
:1095E00006F0C2FB8021204606F0ADFB204606F0C7
:1095F000E4FA254B204693F8341006F002FC20468E
:1096000006F0AFFA0120214606F037FA012029467C
:1096100006F099FB0120202106F046FA01202146A0
:1096200006F057FA02204FF4C06106F026FA022035
:109630004FF4807106F087FB0220214606F049FABC
:109640000220202106F030FA0320214606F015FA08
:1096500003204FF4887106F087FB0320402106F0B9
:10966000D0FB03204FF4405106F033FA032021468B
:1096700006F01AFA204606F045F8044B01225A601B
:1096800038BD00BFD814002044000020440700204B
:10969000014905F031BE00BF7C000020014905F002
:1096A0002BBE00BF84000020054B1B68DB78042B19
:1096B00004D8044901EBC30105F01EBE0020704729
:1096C000D81400208C00002008B5002004F09EFA79
:1096D000BDE808404FF40000012104F025BB024B17
:1096E00003225A60704700BF44070020044B9A7A57
:1096F000044B0AB1052200E001225A60704700BF06
:10970000781400204407002007B514238DF8043096
:1097100000238DF805308DF8063001A801238DF85F
:10972000073004F089F803B05DF804FB20B1054868
:109730004FF4806103F0DDBF02484FF4806103F015
:10974000DABF00BF000801407047684620F00701FB
:109750008D4679B5154D164B2A681C4692B21A8073
:10976000144A188811881646014011F4806F05D0FC
:109770004FF6FF332B60104BDB6898472388328805
:109780001340990507D54FF6FF532B600B4B197CFF
:109790000131C9B2197423881A40130401D506F0A7
:1097A00019F8BDE879408546704700BF445C004029
:1097B0006E1400201E1500204400002044070020E5
:1097C00008B509484FF4806103F093FF074B01226D
:1097D0001A60074A00200749186010604FF4E052F1
:1097E0000A801A6008BD00BF00080140405C0040CC
:1097F000445C00401E150020084B10B51B68002477
:109800009C72FFF7DDFF064B064A1C604FF40643CF
:109810001380054A1360054B5C6010BDD81400200E
:10982000445C00401E150020405C004044070020BE
:1098300038B5064D01232B60054B00241C602046E3
:10984000FFF774FF03232B60204638BD405C0040C7
:10985000445C0040074B1A6892B242F008021A605A
:109860001A6892B242F004021A60034B03225A6053
:10987000704700BF405C00404407002010B5064C14
:109880004FF6FB73226813402360FFF72FFF4FF45E
:109890000643236010BD00BF405C004010B51E4C65
:1098A000072818BF20702378052B32D8DFE803F093
:1098B00003060A0E1621FFF7E1FF2AE0FFF7DEFF9D
:1098C000042327E002236370032323E06378013B32
:1098D000DBB263706378F3B9042217E00F4B1A68A8
:1098E00092B242F010021A60052323700A236370BB
:1098F00010BD6378013BDBB2637063785BB9074AE4
:109900004FF6EF7311680B4013600622024B1A707A
:1099100010BD0623237010BDDC140020405C004005
:1099200007B5FFF7D1FEFFF7EFFE05F037FF042084
:10993000012104F0EDF94FF48063ADF80430032306
:109940008DF806300448102301A98DF8073003F084
:1099500068FE03B05DF804FB0008014007B514235E
:109960008DF8043000238DF805308DF8063001A8FD
:1099700001238DF8073003F05FFF03B05DF804FBAF
:10998000FFF756BF0B4910B5CA6882B14B68052B6B
:109990000CD10023CC68A34204D2074C1C5DC454F4
:1099A0000133F7E7034B0021D96000E000221046A5
:1099B00010BD00BF44070020DE140020084BDA6809
:1099C000082A1A460AD900230649595CC1540133B2
:1099D000092BF9D10023D360012070470020704784
:1099E00044070020DE14002010B5084C0A46216010
:1099F00092B2C02105F0D0FF0120218806F0E0F9E5
:109A0000BDE81040012006F09DB800BF44070020CB
:109A1000704710B5FFF782FC074C2368C01AB0F5F9
:109A2000FA7F07D9054BDA6882F40062DA60FFF743
:109A300075FC206010BD00BF20150020000C014007
:109A40007047704770477047054B064AD3F80310BC
:109A5000054B09B9928800E0128992B25A607047AA
:109A6000980A0020006C0040B00C0020704770473E
:109A700070477047F8B50F4B0D461E5CC1F30741A8
:109A800000223046FAF7C8FE0B4C0702C5F3072147
:109A9000002230462760FAF7BFFE38430702E9B2DA
:109AA000304601222760FAF7B7FE384307092760DE
:109AB000F8BD00BF411401085807002038B5484CD4
:109AC0000B2303FB004203FB0043117904330329FA
:109AD00084BF032111719A78032A84BF03229A70EC
